{
  "_format": "hh-sol-artifact-1",
  "contractName": "NWS01NFT",
  "sourceName": "contracts/NWS01NFT.sol",
  "abi": [
    {
      "inputs": [],
      "stateMutability": "nonpayable",
      "type": "constructor"
    },
    {
      "anonymous": false,
      "inputs": [
        {
          "indexed": true,
          "internalType": "address",
          "name": "owner",
          "type": "address"
        },
        {
          "indexed": true,
          "internalType": "address",
          "name": "approved",
          "type": "address"
        },
        {
          "indexed": true,
          "internalType": "uint256",
          "name": "tokenId",
          "type": "uint256"
        }
      ],
      "name": "Approval",
      "type": "event"
    },
    {
      "anonymous": false,
      "inputs": [
        {
          "indexed": true,
          "internalType": "address",
          "name": "owner",
          "type": "address"
        },
        {
          "indexed": true,
          "internalType": "address",
          "name": "operator",
          "type": "address"
        },
        {
          "indexed": false,
          "internalType": "bool",
          "name": "approved",
          "type": "bool"
        }
      ],
      "name": "ApprovalForAll",
      "type": "event"
    },
    {
      "anonymous": false,
      "inputs": [
        {
          "indexed": true,
          "internalType": "address",
          "name": "previousOwner",
          "type": "address"
        },
        {
          "indexed": true,
          "internalType": "address",
          "name": "newOwner",
          "type": "address"
        }
      ],
      "name": "OwnershipTransferred",
      "type": "event"
    },
    {
      "anonymous": false,
      "inputs": [
        {
          "indexed": true,
          "internalType": "address",
          "name": "from",
          "type": "address"
        },
        {
          "indexed": true,
          "internalType": "address",
          "name": "to",
          "type": "address"
        },
        {
          "indexed": true,
          "internalType": "uint256",
          "name": "tokenId",
          "type": "uint256"
        }
      ],
      "name": "Transfer",
      "type": "event"
    },
    {
      "inputs": [
        {
          "internalType": "address",
          "name": "to",
          "type": "address"
        },
        {
          "internalType": "uint256",
          "name": "tokenId",
          "type": "uint256"
        }
      ],
      "name": "approve",
      "outputs": [],
      "stateMutability": "nonpayable",
      "type": "function"
    },
    {
      "inputs": [],
      "name": "availableTicketCount",
      "outputs": [
        {
          "internalType": "uint256",
          "name": "",
          "type": "uint256"
        }
      ],
      "stateMutability": "view",
      "type": "function"
    },
    {
      "inputs": [],
      "name": "availableTickets",
      "outputs": [
        {
          "internalType": "uint256",
          "name": "",
          "type": "uint256"
        }
      ],
      "stateMutability": "view",
      "type": "function"
    },
    {
      "inputs": [
        {
          "internalType": "address",
          "name": "owner",
          "type": "address"
        }
      ],
      "name": "balanceOf",
      "outputs": [
        {
          "internalType": "uint256",
          "name": "",
          "type": "uint256"
        }
      ],
      "stateMutability": "view",
      "type": "function"
    },
    {
      "inputs": [],
      "name": "closeSale",
      "outputs": [],
      "stateMutability": "nonpayable",
      "type": "function"
    },
    {
      "inputs": [
        {
          "internalType": "uint256",
          "name": "tokenId",
          "type": "uint256"
        }
      ],
      "name": "getApproved",
      "outputs": [
        {
          "internalType": "address",
          "name": "",
          "type": "address"
        }
      ],
      "stateMutability": "view",
      "type": "function"
    },
    {
      "inputs": [],
      "name": "getCurrentId",
      "outputs": [
        {
          "internalType": "uint256",
          "name": "",
          "type": "uint256"
        }
      ],
      "stateMutability": "view",
      "type": "function"
    },
    {
      "inputs": [
        {
          "internalType": "address",
          "name": "",
          "type": "address"
        },
        {
          "internalType": "uint256",
          "name": "",
          "type": "uint256"
        }
      ],
      "name": "holderTokenIds",
      "outputs": [
        {
          "internalType": "uint256",
          "name": "",
          "type": "uint256"
        }
      ],
      "stateMutability": "view",
      "type": "function"
    },
    {
      "inputs": [
        {
          "internalType": "address",
          "name": "owner",
          "type": "address"
        },
        {
          "internalType": "address",
          "name": "operator",
          "type": "address"
        }
      ],
      "name": "isApprovedForAll",
      "outputs": [
        {
          "internalType": "bool",
          "name": "",
          "type": "bool"
        }
      ],
      "stateMutability": "view",
      "type": "function"
    },
    {
      "inputs": [],
      "name": "mint",
      "outputs": [],
      "stateMutability": "nonpayable",
      "type": "function"
    },
    {
      "inputs": [],
      "name": "name",
      "outputs": [
        {
          "internalType": "string",
          "name": "",
          "type": "string"
        }
      ],
      "stateMutability": "view",
      "type": "function"
    },
    {
      "inputs": [],
      "name": "openSale",
      "outputs": [],
      "stateMutability": "nonpayable",
      "type": "function"
    },
    {
      "inputs": [],
      "name": "owner",
      "outputs": [
        {
          "internalType": "address",
          "name": "",
          "type": "address"
        }
      ],
      "stateMutability": "view",
      "type": "function"
    },
    {
      "inputs": [
        {
          "internalType": "uint256",
          "name": "tokenId",
          "type": "uint256"
        }
      ],
      "name": "ownerOf",
      "outputs": [
        {
          "internalType": "address",
          "name": "",
          "type": "address"
        }
      ],
      "stateMutability": "view",
      "type": "function"
    },
    {
      "inputs": [],
      "name": "renounceOwnership",
      "outputs": [],
      "stateMutability": "nonpayable",
      "type": "function"
    },
    {
      "inputs": [
        {
          "internalType": "address",
          "name": "from",
          "type": "address"
        },
        {
          "internalType": "address",
          "name": "to",
          "type": "address"
        },
        {
          "internalType": "uint256",
          "name": "tokenId",
          "type": "uint256"
        }
      ],
      "name": "safeTransferFrom",
      "outputs": [],
      "stateMutability": "nonpayable",
      "type": "function"
    },
    {
      "inputs": [
        {
          "internalType": "address",
          "name": "from",
          "type": "address"
        },
        {
          "internalType": "address",
          "name": "to",
          "type": "address"
        },
        {
          "internalType": "uint256",
          "name": "tokenId",
          "type": "uint256"
        },
        {
          "internalType": "bytes",
          "name": "data",
          "type": "bytes"
        }
      ],
      "name": "safeTransferFrom",
      "outputs": [],
      "stateMutability": "nonpayable",
      "type": "function"
    },
    {
      "inputs": [],
      "name": "saleIsActive",
      "outputs": [
        {
          "internalType": "bool",
          "name": "",
          "type": "bool"
        }
      ],
      "stateMutability": "view",
      "type": "function"
    },
    {
      "inputs": [
        {
          "internalType": "address",
          "name": "operator",
          "type": "address"
        },
        {
          "internalType": "bool",
          "name": "approved",
          "type": "bool"
        }
      ],
      "name": "setApprovalForAll",
      "outputs": [],
      "stateMutability": "nonpayable",
      "type": "function"
    },
    {
      "inputs": [
        {
          "internalType": "bytes4",
          "name": "interfaceId",
          "type": "bytes4"
        }
      ],
      "name": "supportsInterface",
      "outputs": [
        {
          "internalType": "bool",
          "name": "",
          "type": "bool"
        }
      ],
      "stateMutability": "view",
      "type": "function"
    },
    {
      "inputs": [],
      "name": "symbol",
      "outputs": [
        {
          "internalType": "string",
          "name": "",
          "type": "string"
        }
      ],
      "stateMutability": "view",
      "type": "function"
    },
    {
      "inputs": [
        {
          "internalType": "uint256",
          "name": "tokenId",
          "type": "uint256"
        }
      ],
      "name": "tokenURI",
      "outputs": [
        {
          "internalType": "string",
          "name": "",
          "type": "string"
        }
      ],
      "stateMutability": "view",
      "type": "function"
    },
    {
      "inputs": [],
      "name": "totalTicketCount",
      "outputs": [
        {
          "internalType": "uint256",
          "name": "",
          "type": "uint256"
        }
      ],
      "stateMutability": "view",
      "type": "function"
    },
    {
      "inputs": [],
      "name": "totalTickets",
      "outputs": [
        {
          "internalType": "uint256",
          "name": "",
          "type": "uint256"
        }
      ],
      "stateMutability": "view",
      "type": "function"
    },
    {
      "inputs": [
        {
          "internalType": "address",
          "name": "from",
          "type": "address"
        },
        {
          "internalType": "address",
          "name": "to",
          "type": "address"
        },
        {
          "internalType": "uint256",
          "name": "tokenId",
          "type": "uint256"
        }
      ],
      "name": "transferFrom",
      "outputs": [],
      "stateMutability": "nonpayable",
      "type": "function"
    },
    {
      "inputs": [
        {
          "internalType": "address",
          "name": "newOwner",
          "type": "address"
        }
      ],
      "name": "transferOwnership",
      "outputs": [],
      "stateMutability": "nonpayable",
      "type": "function"
    }
  ],
  "bytecode": "0x60806040526040518061032001604052806102e48152602001620038ff6102e4913960099080519060200190620000389291906200028c565b5060405180610c400160405280610c1c815260200162003be3610c1c9139600a90805190602001906200006d9291906200028c565b5060405180602001604052806000815250600b9080519060200190620000959291906200028c565b506000600c60006101000a81548160ff0219169083151502179055506101f4600d556101f4600e55348015620000ca57600080fd5b506040518060400160405280601781526020017f4e696768747320616e64205765656b656e6473205330310000000000000000008152506040518060400160405280600581526020017f4e5753303100000000000000000000000000000000000000000000000000000081525081600090805190602001906200014f9291906200028c565b508060019080519060200190620001689291906200028c565b5050506200018b6200017f620001a860201b60201c565b620001b060201b60201c565b620001a260086200027660201b62000f981760201c565b620003a1565b600033905090565b6000600760009054906101000a900473ffffffffffffffffffffffffffffffffffffffff16905081600760006101000a81548173ffffffffffffffffffffffffffffffffffffffff021916908373ffffffffffffffffffffffffffffffffffffffff1602179055508173ffffffffffffffffffffffffffffffffffffffff168173ffffffffffffffffffffffffffffffffffffffff167f8be0079c531659141344cd1fd0a4f28419497f9722a3daafe3b4186f6b6457e060405160405180910390a35050565b6001816000016000828254019250508190555050565b8280546200029a906200033c565b90600052602060002090601f016020900481019282620002be57600085556200030a565b82601f10620002d957805160ff19168380011785556200030a565b828001600101855582156200030a579182015b8281111562000309578251825591602001919060010190620002ec565b5b5090506200031991906200031d565b5090565b5b80821115620003385760008160009055506001016200031e565b5090565b600060028204905060018216806200035557607f821691505b602082108114156200036c576200036b62000372565b5b50919050565b7f4e487b7100000000000000000000000000000000000000000000000000000000600052602260045260246000fd5b61354e80620003b16000396000f3fe608060405234801561001057600080fd5b506004361061018e5760003560e01c806370a08231116100de578063b88d4fde11610097578063e985e9c511610071578063e985e9c51461044d578063eb8d24441461047d578063ee55efee1461049b578063f2fde38b146104a55761018e565b8063b88d4fde146103e3578063c87b56dd146103ff578063dd11247e1461042f5761018e565b806370a0823114610321578063715018a6146103515780638da5cb5b1461035b57806395d89b4114610379578063a22cb46514610397578063a86a0682146103b35761018e565b8063167ff46f1161014b5780633d721ecd116101255780633d721ecd1461029957806342842e0e146102b75780636352211e146102d35780636c143862146103035761018e565b8063167ff46f1461025557806323b872dd1461025f5780633cfa7e011461027b5761018e565b806301ffc9a71461019357806306fdde03146101c3578063081812fc146101e1578063095ea7b3146102115780631249c58b1461022d57806314558fab14610237575b600080fd5b6101ad60048036038101906101a891906123f9565b6104c1565b6040516101ba9190612951565b60405180910390f35b6101cb6105a3565b6040516101d8919061296c565b60405180910390f35b6101fb60048036038101906101f6919061244b565b610635565b60405161020891906128ea565b60405180910390f35b61022b600480360381019061022691906123bd565b61067b565b005b610235610793565b005b61023f61096a565b60405161024c9190612b6e565b60405180910390f35b61025d610974565b005b610279600480360381019061027491906122b7565b610999565b005b6102836109f9565b6040516102909190612b6e565b60405180910390f35b6102a16109ff565b6040516102ae9190612b6e565b60405180910390f35b6102d160048036038101906102cc91906122b7565b610a09565b005b6102ed60048036038101906102e8919061244b565b610a29565b6040516102fa91906128ea565b60405180910390f35b61030b610adb565b6040516103189190612b6e565b60405180910390f35b61033b60048036038101906103369190612252565b610afe565b6040516103489190612b6e565b60405180910390f35b610359610bb6565b005b610363610bca565b60405161037091906128ea565b60405180910390f35b610381610bf4565b60405161038e919061296c565b60405180910390f35b6103b160048036038101906103ac9190612381565b610c86565b005b6103cd60048036038101906103c891906123bd565b610c9c565b6040516103da9190612b6e565b60405180910390f35b6103fd60048036038101906103f89190612306565b610ccd565b005b6104196004803603810190610414919061244b565b610d2f565b604051610426919061296c565b60405180910390f35b610437610e42565b6040516104449190612b6e565b60405180910390f35b6104676004803603810190610462919061227b565b610e48565b6040516104749190612951565b60405180910390f35b610485610edc565b6040516104929190612951565b60405180910390f35b6104a3610eef565b005b6104bf60048036038101906104ba9190612252565b610f14565b005b60007f80ac58cd000000000000000000000000000000000000000000000000000000007bffffffffffffffffffffffffffffffffffffffffffffffffffffffff1916827bffffffffffffffffffffffffffffffffffffffffffffffffffffffff1916148061058c57507f5b5e139f000000000000000000000000000000000000000000000000000000007bffffffffffffffffffffffffffffffffffffffffffffffffffffffff1916827bffffffffffffffffffffffffffffffffffffffffffffffffffffffff1916145b8061059c575061059b82610fae565b5b9050919050565b6060600080546105b290612e02565b80601f01602080910402602001604051908101604052809291908181526020018280546105de90612e02565b801561062b5780601f106106005761010080835404028352916020019161062b565b820191906000526020600020905b81548152906001019060200180831161060e57829003601f168201915b5050505050905090565b600061064082611018565b6004600083815260200190815260200160002060009054906101000a900473ffffffffffffffffffffffffffffffffffffffff169050919050565b600061068682610a29565b90508073ffffffffffffffffffffffffffffffffffffffff168373ffffffffffffffffffffffffffffffffffffffff1614156106f7576040517f08c379a00000000000000000000000000000000000000000000000000000000081526004016106ee90612b0e565b60405180910390fd5b8073ffffffffffffffffffffffffffffffffffffffff16610716611063565b73ffffffffffffffffffffffffffffffffffffffff16148061074557506107448161073f611063565b610e48565b5b610784576040517f08c379a000000000000000000000000000000000000000000000000000000000815260040161077b90612a8e565b60405180910390fd5b61078e838361106b565b505050565b6000600e54116107d8576040517f08c379a00000000000000000000000000000000000000000000000000000000081526004016107cf90612b2e565b60405180910390fd5b60006107e46008611124565b905060006107f182611132565b9050600a821015610849576040518060400160405280600281526020017f3030000000000000000000000000000000000000000000000000000000000000815250600b90805190602001906108479291906120de565b505b6009821180156108595750606482105b156108ab576040518060400160405280600181526020017f3000000000000000000000000000000000000000000000000000000000000000815250600b90805190602001906108a99291906120de565b505b60006009600b83600a6040516020016108c7949392919061285d565b6040516020818303038152906040529050600061090a6108e6836112df565b6040516020016108f6919061289b565b6040516020818303038152906040526112df565b905060008160405160200161091f91906128c8565b604051602081830303815290604052905061093a338661149d565b61094485826114bb565b61094e6008610f98565b6001600e5461095d9190612d18565b600e819055505050505050565b6000600d54905090565b61097c61152f565b6001600c60006101000a81548160ff021916908315150217905550565b6109aa6109a4611063565b826115ad565b6109e9576040517f08c379a00000000000000000000000000000000000000000000000000000000081526004016109e090612b4e565b60405180910390fd5b6109f4838383611642565b505050565b600e5481565b6000600e54905090565b610a2483838360405180602001604052806000815250610ccd565b505050565b6000806002600084815260200190815260200160002060009054906101000a900473ffffffffffffffffffffffffffffffffffffffff169050600073ffffffffffffffffffffffffffffffffffffffff168173ffffffffffffffffffffffffffffffffffffffff161415610ad2576040517f08c379a0000000000000000000000000000000000000000000000000000000008152600401610ac990612aee565b60405180910390fd5b80915050919050565b6000610aef610aea6008611124565b6118a9565b610af96008611124565b905090565b60008073ffffffffffffffffffffffffffffffffffffffff168273ffffffffffffffffffffffffffffffffffffffff161415610b6f576040517f08c379a0000000000000000000000000000000000000000000000000000000008152600401610b6690612a4e565b60405180910390fd5b600360008373ffffffffffffffffffffffffffffffffffffffff1673ffffffffffffffffffffffffffffffffffffffff168152602001908152602001600020549050919050565b610bbe61152f565b610bc86000611942565b565b6000600760009054906101000a900473ffffffffffffffffffffffffffffffffffffffff16905090565b606060018054610c0390612e02565b80601f0160208091040260200160405190810160405280929190818152602001828054610c2f90612e02565b8015610c7c5780601f10610c5157610100808354040283529160200191610c7c565b820191906000526020600020905b815481529060010190602001808311610c5f57829003601f168201915b5050505050905090565b610c98610c91611063565b8383611a08565b5050565b600f6020528160005260406000208181548110610cb857600080fd5b90600052602060002001600091509150505481565b610cde610cd8611063565b836115ad565b610d1d576040517f08c379a0000000000000000000000000000000000000000000000000000000008152600401610d1490612b4e565b60405180910390fd5b610d2984848484611b75565b50505050565b6060610d3a82611018565b6000600660008481526020019081526020016000208054610d5a90612e02565b80601f0160208091040260200160405190810160405280929190818152602001828054610d8690612e02565b8015610dd35780601f10610da857610100808354040283529160200191610dd3565b820191906000526020600020905b815481529060010190602001808311610db657829003601f168201915b505050505090506000610de4611bd1565b9050600081511415610dfa578192505050610e3d565b600082511115610e2f578082604051602001610e17929190612839565b60405160208183030381529060405292505050610e3d565b610e3884611be8565b925050505b919050565b600d5481565b6000600560008473ffffffffffffffffffffffffffffffffffffffff1673ffffffffffffffffffffffffffffffffffffffff16815260200190815260200160002060008373ffffffffffffffffffffffffffffffffffffffff1673ffffffffffffffffffffffffffffffffffffffff16815260200190815260200160002060009054906101000a900460ff16905092915050565b600c60009054906101000a900460ff1681565b610ef761152f565b6000600c60006101000a81548160ff021916908315150217905550565b610f1c61152f565b600073ffffffffffffffffffffffffffffffffffffffff168173ffffffffffffffffffffffffffffffffffffffff161415610f8c576040517f08c379a0000000000000000000000000000000000000000000000000000000008152600401610f83906129ae565b60405180910390fd5b610f9581611942565b50565b6001816000016000828254019250508190555050565b60007f01ffc9a7000000000000000000000000000000000000000000000000000000007bffffffffffffffffffffffffffffffffffffffffffffffffffffffff1916827bffffffffffffffffffffffffffffffffffffffffffffffffffffffff1916149050919050565b61102181611c50565b611060576040517f08c379a000000000000000000000000000000000000000000000000000000000815260040161105790612aee565b60405180910390fd5b50565b600033905090565b816004600083815260200190815260200160002060006101000a81548173ffffffffffffffffffffffffffffffffffffffff021916908373ffffffffffffffffffffffffffffffffffffffff160217905550808273ffffffffffffffffffffffffffffffffffffffff166110de83610a29565b73ffffffffffffffffffffffffffffffffffffffff167f8c5be1e5ebec7d5bd14f71427d1e84f3dd0314c0f7b2291e5b200ac8c7c3b92560405160405180910390a45050565b600081600001549050919050565b6060600082141561117a576040518060400160405280600181526020017f300000000000000000000000000000000000000000000000000000000000000081525090506112da565b600082905060005b600082146111ac57808061119590612e65565b915050600a826111a59190612c8d565b9150611182565b60008167ffffffffffffffff8111156111ee577f4e487b7100000000000000000000000000000000000000000000000000000000600052604160045260246000fd5b6040519080825280601f01601f1916602001820160405280156112205781602001600182028036833780820191505090505b5090505b600085146112d3576001826112399190612d18565b9150600a856112489190612eae565b60306112549190612c37565b60f81b818381518110611290577f4e487b7100000000000000000000000000000000000000000000000000000000600052603260045260246000fd5b60200101907effffffffffffffffffffffffffffffffffffffffffffffffffffffffffffff1916908160001a905350600a856112cc9190612c8d565b9450611224565b8093505050505b919050565b606060008251905060008114156113085760405180602001604052806000815250915050611498565b600060036002836113199190612c37565b6113239190612c8d565b600461132f9190612cbe565b905060006020826113409190612c37565b67ffffffffffffffff81111561137f577f4e487b7100000000000000000000000000000000000000000000000000000000600052604160045260246000fd5b6040519080825280601f01601f1916602001820160405280156113b15781602001600182028036833780820191505090505b50905060006040518060600160405280604081526020016134d9604091399050600181016020830160005b868110156114555760038101905062ffffff818a015116603f8160121c168401518060081b905060ff603f83600c1c1686015116810190508060081b905060ff603f8360061c1686015116810190508060081b905060ff603f831686015116810190508060e01b905080845260048401935050506113dc565b50600386066001811461146f576002811461147f5761148a565b613d3d60f01b600283035261148a565b603d60f81b60018303525b508484525050819450505050505b919050565b6114b7828260405180602001604052806000815250611cbc565b5050565b6114c482611c50565b611503576040517f08c379a00000000000000000000000000000000000000000000000000000000081526004016114fa90612a6e565b60405180910390fd5b8060066000848152602001908152602001600020908051906020019061152a9291906120de565b505050565b611537611063565b73ffffffffffffffffffffffffffffffffffffffff16611555610bca565b73ffffffffffffffffffffffffffffffffffffffff16146115ab576040517f08c379a00000000000000000000000000000000000000000000000000000000081526004016115a290612ace565b60405180910390fd5b565b6000806115b983610a29565b90508073ffffffffffffffffffffffffffffffffffffffff168473ffffffffffffffffffffffffffffffffffffffff1614806115fb57506115fa8185610e48565b5b8061163957508373ffffffffffffffffffffffffffffffffffffffff1661162184610635565b73ffffffffffffffffffffffffffffffffffffffff16145b91505092915050565b8273ffffffffffffffffffffffffffffffffffffffff1661166282610a29565b73ffffffffffffffffffffffffffffffffffffffff16146116b8576040517f08c379a00000000000000000000000000000000000000000000000000000000081526004016116af906129ce565b60405180910390fd5b600073ffffffffffffffffffffffffffffffffffffffff168273ffffffffffffffffffffffffffffffffffffffff161415611728576040517f08c379a000000000000000000000000000000000000000000000000000000000815260040161171f90612a0e565b60405180910390fd5b611733838383611d17565b61173e60008261106b565b6001600360008573ffffffffffffffffffffffffffffffffffffffff1673ffffffffffffffffffffffffffffffffffffffff168152602001908152602001600020600082825461178e9190612d18565b925050819055506001600360008473ffffffffffffffffffffffffffffffffffffffff1673ffffffffffffffffffffffffffffffffffffffff16815260200190815260200160002060008282546117e59190612c37565b92505081905550816002600083815260200190815260200160002060006101000a81548173ffffffffffffffffffffffffffffffffffffffff021916908373ffffffffffffffffffffffffffffffffffffffff160217905550808273ffffffffffffffffffffffffffffffffffffffff168473ffffffffffffffffffffffffffffffffffffffff167fddf252ad1be2c89b69c2b068fc378daa952ba7f163c4a11628f55a4df523b3ef60405160405180910390a46118a4838383611d1c565b505050565b61193f816040516024016118bd9190612b6e565b6040516020818303038152906040527ff5b1bba9000000000000000000000000000000000000000000000000000000007bffffffffffffffffffffffffffffffffffffffffffffffffffffffff19166020820180517bffffffffffffffffffffffffffffffffffffffffffffffffffffffff8381831617835250505050611d21565b50565b6000600760009054906101000a900473ffffffffffffffffffffffffffffffffffffffff16905081600760006101000a81548173ffffffffffffffffffffffffffffffffffffffff021916908373ffffffffffffffffffffffffffffffffffffffff1602179055508173ffffffffffffffffffffffffffffffffffffffff168173ffffffffffffffffffffffffffffffffffffffff167f8be0079c531659141344cd1fd0a4f28419497f9722a3daafe3b4186f6b6457e060405160405180910390a35050565b8173ffffffffffffffffffffffffffffffffffffffff168373ffffffffffffffffffffffffffffffffffffffff161415611a77576040517f08c379a0000000000000000000000000000000000000000000000000000000008152600401611a6e90612a2e565b60405180910390fd5b80600560008573ffffffffffffffffffffffffffffffffffffffff1673ffffffffffffffffffffffffffffffffffffffff16815260200190815260200160002060008473ffffffffffffffffffffffffffffffffffffffff1673ffffffffffffffffffffffffffffffffffffffff16815260200190815260200160002060006101000a81548160ff0219169083151502179055508173ffffffffffffffffffffffffffffffffffffffff168373ffffffffffffffffffffffffffffffffffffffff167f17307eab39ab6107e8899845ad3d59bd9653f200f220920489ca2b5937696c3183604051611b689190612951565b60405180910390a3505050565b611b80848484611642565b611b8c84848484611d4a565b611bcb576040517f08c379a0000000000000000000000000000000000000000000000000000000008152600401611bc29061298e565b60405180910390fd5b50505050565b606060405180602001604052806000815250905090565b6060611bf382611018565b6000611bfd611bd1565b90506000815111611c1d5760405180602001604052806000815250611c48565b80611c2784611132565b604051602001611c38929190612839565b6040516020818303038152906040525b915050919050565b60008073ffffffffffffffffffffffffffffffffffffffff166002600084815260200190815260200160002060009054906101000a900473ffffffffffffffffffffffffffffffffffffffff1673ffffffffffffffffffffffffffffffffffffffff1614159050919050565b611cc68383611ee1565b611cd36000848484611d4a565b611d12576040517f08c379a0000000000000000000000000000000000000000000000000000000008152600401611d099061298e565b60405180910390fd5b505050565b505050565b505050565b60008151905060006a636f6e736f6c652e6c6f679050602083016000808483855afa5050505050565b6000611d6b8473ffffffffffffffffffffffffffffffffffffffff166120bb565b15611ed4578373ffffffffffffffffffffffffffffffffffffffff1663150b7a02611d94611063565b8786866040518563ffffffff1660e01b8152600401611db69493929190612905565b602060405180830381600087803b158015611dd057600080fd5b505af1925050508015611e0157506040513d601f19601f82011682018060405250810190611dfe9190612422565b60015b611e84573d8060008114611e31576040519150601f19603f3d011682016040523d82523d6000602084013e611e36565b606091505b50600081511415611e7c576040517f08c379a0000000000000000000000000000000000000000000000000000000008152600401611e739061298e565b60405180910390fd5b805181602001fd5b63150b7a0260e01b7bffffffffffffffffffffffffffffffffffffffffffffffffffffffff1916817bffffffffffffffffffffffffffffffffffffffffffffffffffffffff191614915050611ed9565b600190505b949350505050565b600073ffffffffffffffffffffffffffffffffffffffff168273ffffffffffffffffffffffffffffffffffffffff161415611f51576040517f08c379a0000000000000000000000000000000000000000000000000000000008152600401611f4890612aae565b60405180910390fd5b611f5a81611c50565b15611f9a576040517f08c379a0000000000000000000000000000000000000000000000000000000008152600401611f91906129ee565b60405180910390fd5b611fa660008383611d17565b6001600360008473ffffffffffffffffffffffffffffffffffffffff1673ffffffffffffffffffffffffffffffffffffffff1681526020019081526020016000206000828254611ff69190612c37565b92505081905550816002600083815260200190815260200160002060006101000a81548173ffffffffffffffffffffffffffffffffffffffff021916908373ffffffffffffffffffffffffffffffffffffffff160217905550808273ffffffffffffffffffffffffffffffffffffffff16600073ffffffffffffffffffffffffffffffffffffffff167fddf252ad1be2c89b69c2b068fc378daa952ba7f163c4a11628f55a4df523b3ef60405160405180910390a46120b760008383611d1c565b5050565b6000808273ffffffffffffffffffffffffffffffffffffffff163b119050919050565b8280546120ea90612e02565b90600052602060002090601f01602090048101928261210c5760008555612153565b82601f1061212557805160ff1916838001178555612153565b82800160010185558215612153579182015b82811115612152578251825591602001919060010190612137565b5b5090506121609190612164565b5090565b5b8082111561217d576000816000905550600101612165565b5090565b600061219461218f84612bae565b612b89565b9050828152602081018484840111156121ac57600080fd5b6121b7848285612dc0565b509392505050565b6000813590506121ce8161347c565b92915050565b6000813590506121e381613493565b92915050565b6000813590506121f8816134aa565b92915050565b60008151905061220d816134aa565b92915050565b600082601f83011261222457600080fd5b8135612234848260208601612181565b91505092915050565b60008135905061224c816134c1565b92915050565b60006020828403121561226457600080fd5b6000612272848285016121bf565b91505092915050565b6000806040838503121561228e57600080fd5b600061229c858286016121bf565b92505060206122ad858286016121bf565b9150509250929050565b6000806000606084860312156122cc57600080fd5b60006122da868287016121bf565b93505060206122eb868287016121bf565b92505060406122fc8682870161223d565b9150509250925092565b6000806000806080858703121561231c57600080fd5b600061232a878288016121bf565b945050602061233b878288016121bf565b935050604061234c8782880161223d565b925050606085013567ffffffffffffffff81111561236957600080fd5b61237587828801612213565b91505092959194509250565b6000806040838503121561239457600080fd5b60006123a2858286016121bf565b92505060206123b3858286016121d4565b9150509250929050565b600080604083850312156123d057600080fd5b60006123de858286016121bf565b92505060206123ef8582860161223d565b9150509250929050565b60006020828403121561240b57600080fd5b6000612419848285016121e9565b91505092915050565b60006020828403121561243457600080fd5b6000612442848285016121fe565b91505092915050565b60006020828403121561245d57600080fd5b600061246b8482850161223d565b91505092915050565b61247d81612d4c565b82525050565b61248c81612d5e565b82525050565b600061249d82612bf4565b6124a78185612c0a565b93506124b7818560208601612dcf565b6124c081612f9b565b840191505092915050565b60006124d682612bff565b6124e08185612c1b565b93506124f0818560208601612dcf565b6124f981612f9b565b840191505092915050565b600061250f82612bff565b6125198185612c2c565b9350612529818560208601612dcf565b80840191505092915050565b6000815461254281612e02565b61254c8186612c2c565b945060018216600081146125675760018114612578576125ab565b60ff198316865281860193506125ab565b61258185612bdf565b60005b838110156125a357815481890152600182019150602081019050612584565b838801955050505b50505092915050565b60006125c1603283612c1b565b91506125cc82612fac565b604082019050919050565b60006125e4602683612c1b565b91506125ef82612ffb565b604082019050919050565b6000612607602583612c1b565b91506126128261304a565b604082019050919050565b600061262a601c83612c1b565b915061263582613099565b602082019050919050565b600061264d602483612c1b565b9150612658826130c2565b604082019050919050565b6000612670601983612c1b565b915061267b82613111565b602082019050919050565b6000612693602983612c1b565b915061269e8261313a565b604082019050919050565b60006126b6602e83612c1b565b91506126c182613189565b604082019050919050565b60006126d9600283612c2c565b91506126e4826131d8565b600282019050919050565b60006126fc608e83612c2c565b915061270782613201565b608e82019050919050565b600061271f603e83612c1b565b915061272a826132c2565b604082019050919050565b6000612742602083612c1b565b915061274d82613311565b602082019050919050565b6000612765602083612c1b565b91506127708261333a565b602082019050919050565b6000612788601883612c1b565b915061279382613363565b602082019050919050565b60006127ab602183612c1b565b91506127b68261338c565b604082019050919050565b60006127ce601d83612c2c565b91506127d9826133db565b601d82019050919050565b60006127f1600883612c1b565b91506127fc82613404565b602082019050919050565b6000612814602e83612c1b565b915061281f8261342d565b604082019050919050565b61283381612db6565b82525050565b60006128458285612504565b91506128518284612504565b91508190509392505050565b60006128698287612535565b91506128758286612535565b91506128818285612504565b915061288d8284612535565b915081905095945050505050565b60006128a6826126ef565b91506128b28284612504565b91506128bd826126cc565b915081905092915050565b60006128d3826127c1565b91506128df8284612504565b915081905092915050565b60006020820190506128ff6000830184612474565b92915050565b600060808201905061291a6000830187612474565b6129276020830186612474565b612934604083018561282a565b81810360608301526129468184612492565b905095945050505050565b60006020820190506129666000830184612483565b92915050565b6000602082019050818103600083015261298681846124cb565b905092915050565b600060208201905081810360008301526129a7816125b4565b9050919050565b600060208201905081810360008301526129c7816125d7565b9050919050565b600060208201905081810360008301526129e7816125fa565b9050919050565b60006020820190508181036000830152612a078161261d565b9050919050565b60006020820190508181036000830152612a2781612640565b9050919050565b60006020820190508181036000830152612a4781612663565b9050919050565b60006020820190508181036000830152612a6781612686565b9050919050565b60006020820190508181036000830152612a87816126a9565b9050919050565b60006020820190508181036000830152612aa781612712565b9050919050565b60006020820190508181036000830152612ac781612735565b9050919050565b60006020820190508181036000830152612ae781612758565b9050919050565b60006020820190508181036000830152612b078161277b565b9050919050565b60006020820190508181036000830152612b278161279e565b9050919050565b60006020820190508181036000830152612b47816127e4565b9050919050565b60006020820190508181036000830152612b6781612807565b9050919050565b6000602082019050612b83600083018461282a565b92915050565b6000612b93612ba4565b9050612b9f8282612e34565b919050565b6000604051905090565b600067ffffffffffffffff821115612bc957612bc8612f6c565b5b612bd282612f9b565b9050602081019050919050565b60008190508160005260206000209050919050565b600081519050919050565b600081519050919050565b600082825260208201905092915050565b600082825260208201905092915050565b600081905092915050565b6000612c4282612db6565b9150612c4d83612db6565b9250827fffffffffffffffffffffffffffffffffffffffffffffffffffffffffffffffff03821115612c8257612c81612edf565b5b828201905092915050565b6000612c9882612db6565b9150612ca383612db6565b925082612cb357612cb2612f0e565b5b828204905092915050565b6000612cc982612db6565b9150612cd483612db6565b9250817fffffffffffffffffffffffffffffffffffffffffffffffffffffffffffffffff0483118215151615612d0d57612d0c612edf565b5b828202905092915050565b6000612d2382612db6565b9150612d2e83612db6565b925082821015612d4157612d40612edf565b5b828203905092915050565b6000612d5782612d96565b9050919050565b60008115159050919050565b60007fffffffff0000000000000000000000000000000000000000000000000000000082169050919050565b600073ffffffffffffffffffffffffffffffffffffffff82169050919050565b6000819050919050565b82818337600083830152505050565b60005b83811015612ded578082015181840152602081019050612dd2565b83811115612dfc576000848401525b50505050565b60006002820490506001821680612e1a57607f821691505b60208210811415612e2e57612e2d612f3d565b5b50919050565b612e3d82612f9b565b810181811067ffffffffffffffff82111715612e5c57612e5b612f6c565b5b80604052505050565b6000612e7082612db6565b91507fffffffffffffffffffffffffffffffffffffffffffffffffffffffffffffffff821415612ea357612ea2612edf565b5b600182019050919050565b6000612eb982612db6565b9150612ec483612db6565b925082612ed457612ed3612f0e565b5b828206905092915050565b7f4e487b7100000000000000000000000000000000000000000000000000000000600052601160045260246000fd5b7f4e487b7100000000000000000000000000000000000000000000000000000000600052601260045260246000fd5b7f4e487b7100000000000000000000000000000000000000000000000000000000600052602260045260246000fd5b7f4e487b7100000000000000000000000000000000000000000000000000000000600052604160045260246000fd5b6000601f19601f8301169050919050565b7f4552433732313a207472616e7366657220746f206e6f6e20455243373231526560008201527f63656976657220696d706c656d656e7465720000000000000000000000000000602082015250565b7f4f776e61626c653a206e6577206f776e657220697320746865207a65726f206160008201527f6464726573730000000000000000000000000000000000000000000000000000602082015250565b7f4552433732313a207472616e736665722066726f6d20696e636f72726563742060008201527f6f776e6572000000000000000000000000000000000000000000000000000000602082015250565b7f4552433732313a20746f6b656e20616c7265616479206d696e74656400000000600082015250565b7f4552433732313a207472616e7366657220746f20746865207a65726f2061646460008201527f7265737300000000000000000000000000000000000000000000000000000000602082015250565b7f4552433732313a20617070726f766520746f2063616c6c657200000000000000600082015250565b7f4552433732313a2061646472657373207a65726f206973206e6f74206120766160008201527f6c6964206f776e65720000000000000000000000000000000000000000000000602082015250565b7f45524337323155524953746f726167653a2055524920736574206f66206e6f6e60008201527f6578697374656e7420746f6b656e000000000000000000000000000000000000602082015250565b7f227d000000000000000000000000000000000000000000000000000000000000600082015250565b7f7b226e616d65223a20224e69676874732026205765656b656e6473205365617360008201527f6f6e2031222c20226465736372697074696f6e223a2022353030206275696c6460208201527f657273207368697070696e6720666f722036207765656b732e204754464f4c2060408201527f6f72204754464f222c2022696d616765223a2022646174613a696d6167652f7360608201527f76672b786d6c3b6261736536342c000000000000000000000000000000000000608082015250565b7f4552433732313a20617070726f76652063616c6c6572206973206e6f7420746f60008201527f6b656e206f776e6572206e6f7220617070726f76656420666f7220616c6c0000602082015250565b7f4552433732313a206d696e7420746f20746865207a65726f2061646472657373600082015250565b7f4f776e61626c653a2063616c6c6572206973206e6f7420746865206f776e6572600082015250565b7f4552433732313a20696e76616c696420746f6b656e2049440000000000000000600082015250565b7f4552433732313a20617070726f76616c20746f2063757272656e74206f776e6560008201527f7200000000000000000000000000000000000000000000000000000000000000602082015250565b7f646174613a6170706c69636174696f6e2f6a736f6e3b6261736536342c000000600082015250565b7f536f6c64206f7574000000000000000000000000000000000000000000000000600082015250565b7f4552433732313a2063616c6c6572206973206e6f7420746f6b656e206f776e6560008201527f72206e6f7220617070726f766564000000000000000000000000000000000000602082015250565b61348581612d4c565b811461349057600080fd5b50565b61349c81612d5e565b81146134a757600080fd5b50565b6134b381612d6a565b81146134be57600080fd5b50565b6134ca81612db6565b81146134d557600080fd5b5056fe4142434445464748494a4b4c4d4e4f505152535455565758595a6162636465666768696a6b6c6d6e6f707172737475767778797a303132333435363738392b2fa2646970667358221220c50b9d5c5627046a31d00aa6e8eda94e21bc38026705fdccd381eec3396c008064736f6c634300080100333c73766720786d6c6e733d27687474703a2f2f7777772e77332e6f72672f323030302f737667272077696474683d2734303027206865696768743d27363030273e3c726563742077696474683d2734303027206865696768743d2736303027207374796c653d2766696c6c3a72676228362c2031302c203331293b7374726f6b652d77696474683a3327202f3e3c7465787420783d2732352720793d2737352720666f6e742d66616d696c793d2756657264616e612720666f6e742d73697a653d273630273ef09f8c993c2f746578743e3c7465787420783d2739302720793d273136352720666f6e742d66616d696c793d2756657264616e612720666f6e742d73697a653d273435272066696c6c3d27726762283235302c203230342c20323129273e4e49474854532026616d703b3c2f746578743e3c7465787420783d2738302720793d273230302720666f6e742d66616d696c793d2756657264616e612720666f6e742d73697a653d273435272066696c6c3d27726762283235302c203230342c20323129273e5745454b454e44533c2f746578743e3c7465787420783d273132302720793d273339302720666f6e742d66616d696c793d2756657264616e612720666f6e742d73697a653d27313430273ef09fa6843c2f746578743e3c7465787420783d273132302720793d273435352720666f6e742d66616d696c793d2756657264616e612720666f6e742d73697a653d273330272066696c6c3d27726762283235302c203230342c20323129273e534541534f4e2030313c2f746578743e3c6c696e652078313d2730272079313d27343735272078323d27343030272079323d2734373527207374796c653d277374726f6b653a726762283235352c3235352c323535293b7374726f6b652d77696474683a3327202f3e3c7465787420783d2738302720793d273535302720666f6e742d66616d696c793d2756657264616e612720666f6e742d73697a653d273530272066696c6c3d277768697465273e3c2f746578743e3c73766720783d273238302720793d273439302720786d6c6e733d27687474703a2f2f7777772e77332e6f72672f323030302f73766727206865696768743d27313030272077696474683d27313030272076696577426f783d2730203020323920323927207265646e657241733d27737667273e3c706174682066696c6c3d27233036304131462720643d274d302c302068323976323948307a272073686170652d72656e646572696e673d2763726973704564676573273e3c2f706174683e3c706174682066696c6c3d2777686974652720643d274d3020306837763148307a4d3820306835763148387a4d31342030683176314831347a4d31362030683576314831367a4d32322c3020683776314832327a4d3020316831763148307a4d3620316831763148367a4d3820316831763148387a4d31312031683476314831317a4d31382031683176314831387a4d32322031683176314832327a4d32382c3120683176314832387a4d3020326831763148307a4d3220326833763148327a4d3620326831763148367a4d3920326836763148397a4d32302032683176314832307a4d32322032683176314832327a4d32342032683376314832347a4d32382c3220683176314832387a4d3020336831763148307a4d3220336833763148327a4d3620336831763148367a4d3820336831763148387a4d31352033683176314831357a4d31372033683176314831377a4d31392033683176314831397a4d32322033683176314832327a4d32342033683376314832347a4d32382c3320683176314832387a4d3020346831763148307a4d3220346833763148327a4d3620346831763148367a4d3920346832763148397a4d31332034683476314831337a4d31392034683276314831397a4d32322034683176314832327a4d32342034683376314832347a4d32382c3420683176314832387a4d3020356831763148307a4d3620356831763148367a4d3920356831763148397a4d31322035683176314831327a4d31342035683176314831347a4d31362035683176314831367a4d31392035683276314831397a4d32322035683176314832327a4d32382c3520683176314832387a4d3020366837763148307a4d3820366831763148387a4d31302036683176314831307a4d31322036683176314831327a4d31342036683176314831347a4d31362036683176314831367a4d31382036683176314831387a4d32302036683176314832307a4d32322c3620683776314832327a4d3820376831763148387a4d3130203768313076314831307a4d3020386831763148307a4d3220386832763148327a4d3520386833763148357a4d3920386831763148397a4d31332038683676314831337a4d32322038683176314832327a4d32352038683176314832357a4d32372c3820683276314832377a4d3020396833763148307a4d3420396831763148347a4d3820396831763148387a4d31362039683176314831367a4d31382039683776314831387a4d32382c3920683176314832387a4d302031306832763148307a4d342031306831763148347a4d362031306834763148367a4d3131203130683176314831317a4d3134203130683176314831347a4d3136203130683176314831367a4d3138203130683176314831387a4d3231203130683176314832317a4d3233203130683176314832337a4d3236203130683276314832367a4d302031316831763148307a4d332031316833763148337a4d382031316831763148387a4d3133203131683276314831337a4d3138203131683176314831387a4d3232203131683376314832327a4d32382c313120683176314832387a4d342031326831763148347a4d362031326831763148367a4d382031326831763148387a4d3130203132683176314831307a4d3132203132683176314831327a4d3135203132683176314831357a4d3137203132683176314831377a4d3230203132683176314832307a4d3235203132683276314832357a4d302031336831763148307a4d322031336834763148327a4d372031336831763148377a4d392031336835763148397a4d3135203133683276314831357a4d3139203133683176314831397a4d3231203133683276314832317a4d32362c313320683376314832367a4d302031346832763148307a4d352031346833763148357a4d392031346832763148397a4d3134203134683176314831347a4d3139203134683176314831397a4d3232203134683276314832327a4d32362c313420683376314832367a4d302031356831763148307a4d322031356833763148327a4d3130203135683276314831307a4d3133203135683176314831337a4d3138203135683376314831387a4d3232203135683176314832327a4d3237203135683176314832377a4d302031366831763148307a4d332031366831763148337a4d362031366831763148367a4d382031366831763148387a4d3130203136683376314831307a4d3135203136683176314831357a4d3138203136683476314831387a4d3233203136683376314832337a4d3237203136683176314832377a4d352031376831763148357a4d382031376831763148387a4d3131203137683376314831317a4d3135203137683176314831357a4d3138203137683176314831387a4d3231203137683176314832317a4d3233203137683176314832337a4d3235203137683376314832357a4d302031386831763148307a4d332031386834763148337a4d392031386831763148397a4d3131203138683276314831317a4d3135203138683276314831357a4d3230203138683276314832307a4d3233203138683276314832337a4d3236203138683176314832367a4d322031396832763148327a4d392031396831763148397a4d3131203139683176314831317a4d3136203139683276314831367a4d3236203139683176314832367a4d312032306832763148317a4d362032306832763148367a4d392032306835763148397a4d313620323068313176314831367a4d382032316831763148387a4d3132203231683376314831327a4d3136203231683176314831367a4d3230203231683176314832307a4d32342c323120683576314832347a4d302032326837763148307a4d382032326832763148387a4d3132203232683276314831327a4d3136203232683176314831367a4d3139203232683276314831397a4d3232203232683176314832327a4d3234203232683276314832347a4d3237203232683176314832377a4d302032336831763148307a4d362032336831763148367a4d382032336834763148387a4d3138203233683176314831387a4d3230203233683176314832307a4d3234203233683276314832347a4d32372c323320683276314832377a4d302032346831763148307a4d322032346833763148327a4d362032346831763148367a4d392032346833763148397a4d3134203234683276314831347a4d3137203234683276314831377a4d3230203234683576314832307a4d3236203234683176314832367a4d302032356831763148307a4d322032356833763148327a4d362032356831763148367a4d382032356831763148387a4d3131203235683276314831317a4d3134203235683376314831347a4d3139203235683176314831397a4d3231203235683176314832317a4d3234203235683276314832347a4d32382c323520683176314832387a4d302032366831763148307a4d322032366833763148327a4d362032366831763148367a4d382032366831763148387a4d3131203236683276314831317a4d3134203236683176314831347a4d3138203236683276314831387a4d3233203236683176314832337a4d3236203236683176314832367a4d32382c323620683176314832387a4d302032376831763148307a4d362032376831763148367a4d3130203237683176314831307a4d3132203237683276314831327a4d3136203237683176314831367a4d3230203237683276314832307a4d3235203237683176314832357a4d3237203237683176314832377a4d302032386837763148307a4d382032386831763148387a4d3130203238683376314831307a4d3136203238683176314831367a4d3138203238683476314831387a4d3233203238683176314832337a4d3237203238683176314832377a272073686170652d72656e646572696e673d2763726973704564676573273e3c2f706174683e3c2f7376673e3c2f7376673e",
  "linkReferences": {},
  "deployedLinkReferences": {}
}