{
  "_format": "hh-sol-artifact-1",
  "contractName": "NWS01NFT",
  "sourceName": "contracts/NWS01NFT.sol",
  "abi": [
    {
      "inputs": [],
      "stateMutability": "nonpayable",
      "type": "constructor"
    },
    {
      "anonymous": false,
      "inputs": [
        {
          "indexed": true,
          "internalType": "address",
          "name": "owner",
          "type": "address"
        },
        {
          "indexed": true,
          "internalType": "address",
          "name": "approved",
          "type": "address"
        },
        {
          "indexed": true,
          "internalType": "uint256",
          "name": "tokenId",
          "type": "uint256"
        }
      ],
      "name": "Approval",
      "type": "event"
    },
    {
      "anonymous": false,
      "inputs": [
        {
          "indexed": true,
          "internalType": "address",
          "name": "owner",
          "type": "address"
        },
        {
          "indexed": true,
          "internalType": "address",
          "name": "operator",
          "type": "address"
        },
        {
          "indexed": false,
          "internalType": "bool",
          "name": "approved",
          "type": "bool"
        }
      ],
      "name": "ApprovalForAll",
      "type": "event"
    },
    {
      "anonymous": false,
      "inputs": [
        {
          "indexed": true,
          "internalType": "address",
          "name": "previousOwner",
          "type": "address"
        },
        {
          "indexed": true,
          "internalType": "address",
          "name": "newOwner",
          "type": "address"
        }
      ],
      "name": "OwnershipTransferred",
      "type": "event"
    },
    {
      "anonymous": false,
      "inputs": [
        {
          "indexed": true,
          "internalType": "address",
          "name": "from",
          "type": "address"
        },
        {
          "indexed": true,
          "internalType": "address",
          "name": "to",
          "type": "address"
        },
        {
          "indexed": true,
          "internalType": "uint256",
          "name": "tokenId",
          "type": "uint256"
        }
      ],
      "name": "Transfer",
      "type": "event"
    },
    {
      "inputs": [
        {
          "internalType": "address",
          "name": "to",
          "type": "address"
        },
        {
          "internalType": "uint256",
          "name": "tokenId",
          "type": "uint256"
        }
      ],
      "name": "approve",
      "outputs": [],
      "stateMutability": "nonpayable",
      "type": "function"
    },
    {
      "inputs": [],
      "name": "availableTicketCount",
      "outputs": [
        {
          "internalType": "uint256",
          "name": "",
          "type": "uint256"
        }
      ],
      "stateMutability": "view",
      "type": "function"
    },
    {
      "inputs": [],
      "name": "availableTickets",
      "outputs": [
        {
          "internalType": "uint256",
          "name": "",
          "type": "uint256"
        }
      ],
      "stateMutability": "view",
      "type": "function"
    },
    {
      "inputs": [
        {
          "internalType": "address",
          "name": "owner",
          "type": "address"
        }
      ],
      "name": "balanceOf",
      "outputs": [
        {
          "internalType": "uint256",
          "name": "",
          "type": "uint256"
        }
      ],
      "stateMutability": "view",
      "type": "function"
    },
    {
      "inputs": [
        {
          "internalType": "uint256",
          "name": "tokenId",
          "type": "uint256"
        }
      ],
      "name": "getApproved",
      "outputs": [
        {
          "internalType": "address",
          "name": "",
          "type": "address"
        }
      ],
      "stateMutability": "view",
      "type": "function"
    },
    {
      "inputs": [],
      "name": "getCurrentId",
      "outputs": [
        {
          "internalType": "uint256",
          "name": "",
          "type": "uint256"
        }
      ],
      "stateMutability": "view",
      "type": "function"
    },
    {
      "inputs": [
        {
          "internalType": "address",
          "name": "",
          "type": "address"
        },
        {
          "internalType": "uint256",
          "name": "",
          "type": "uint256"
        }
      ],
      "name": "holderTokenIds",
      "outputs": [
        {
          "internalType": "uint256",
          "name": "",
          "type": "uint256"
        }
      ],
      "stateMutability": "view",
      "type": "function"
    },
    {
      "inputs": [
        {
          "internalType": "address",
          "name": "owner",
          "type": "address"
        },
        {
          "internalType": "address",
          "name": "operator",
          "type": "address"
        }
      ],
      "name": "isApprovedForAll",
      "outputs": [
        {
          "internalType": "bool",
          "name": "",
          "type": "bool"
        }
      ],
      "stateMutability": "view",
      "type": "function"
    },
    {
      "inputs": [],
      "name": "mint",
      "outputs": [],
      "stateMutability": "nonpayable",
      "type": "function"
    },
    {
      "inputs": [],
      "name": "name",
      "outputs": [
        {
          "internalType": "string",
          "name": "",
          "type": "string"
        }
      ],
      "stateMutability": "view",
      "type": "function"
    },
    {
      "inputs": [],
      "name": "owner",
      "outputs": [
        {
          "internalType": "address",
          "name": "",
          "type": "address"
        }
      ],
      "stateMutability": "view",
      "type": "function"
    },
    {
      "inputs": [
        {
          "internalType": "uint256",
          "name": "tokenId",
          "type": "uint256"
        }
      ],
      "name": "ownerOf",
      "outputs": [
        {
          "internalType": "address",
          "name": "",
          "type": "address"
        }
      ],
      "stateMutability": "view",
      "type": "function"
    },
    {
      "inputs": [],
      "name": "renounceOwnership",
      "outputs": [],
      "stateMutability": "nonpayable",
      "type": "function"
    },
    {
      "inputs": [
        {
          "internalType": "address",
          "name": "from",
          "type": "address"
        },
        {
          "internalType": "address",
          "name": "to",
          "type": "address"
        },
        {
          "internalType": "uint256",
          "name": "tokenId",
          "type": "uint256"
        }
      ],
      "name": "safeTransferFrom",
      "outputs": [],
      "stateMutability": "nonpayable",
      "type": "function"
    },
    {
      "inputs": [
        {
          "internalType": "address",
          "name": "from",
          "type": "address"
        },
        {
          "internalType": "address",
          "name": "to",
          "type": "address"
        },
        {
          "internalType": "uint256",
          "name": "tokenId",
          "type": "uint256"
        },
        {
          "internalType": "bytes",
          "name": "data",
          "type": "bytes"
        }
      ],
      "name": "safeTransferFrom",
      "outputs": [],
      "stateMutability": "nonpayable",
      "type": "function"
    },
    {
      "inputs": [
        {
          "internalType": "address",
          "name": "operator",
          "type": "address"
        },
        {
          "internalType": "bool",
          "name": "approved",
          "type": "bool"
        }
      ],
      "name": "setApprovalForAll",
      "outputs": [],
      "stateMutability": "nonpayable",
      "type": "function"
    },
    {
      "inputs": [
        {
          "internalType": "bytes4",
          "name": "interfaceId",
          "type": "bytes4"
        }
      ],
      "name": "supportsInterface",
      "outputs": [
        {
          "internalType": "bool",
          "name": "",
          "type": "bool"
        }
      ],
      "stateMutability": "view",
      "type": "function"
    },
    {
      "inputs": [],
      "name": "symbol",
      "outputs": [
        {
          "internalType": "string",
          "name": "",
          "type": "string"
        }
      ],
      "stateMutability": "view",
      "type": "function"
    },
    {
      "inputs": [
        {
          "internalType": "uint256",
          "name": "tokenId",
          "type": "uint256"
        }
      ],
      "name": "tokenURI",
      "outputs": [
        {
          "internalType": "string",
          "name": "",
          "type": "string"
        }
      ],
      "stateMutability": "view",
      "type": "function"
    },
    {
      "inputs": [],
      "name": "totalTicketCount",
      "outputs": [
        {
          "internalType": "uint256",
          "name": "",
          "type": "uint256"
        }
      ],
      "stateMutability": "view",
      "type": "function"
    },
    {
      "inputs": [],
      "name": "totalTickets",
      "outputs": [
        {
          "internalType": "uint256",
          "name": "",
          "type": "uint256"
        }
      ],
      "stateMutability": "view",
      "type": "function"
    },
    {
      "inputs": [
        {
          "internalType": "address",
          "name": "from",
          "type": "address"
        },
        {
          "internalType": "address",
          "name": "to",
          "type": "address"
        },
        {
          "internalType": "uint256",
          "name": "tokenId",
          "type": "uint256"
        }
      ],
      "name": "transferFrom",
      "outputs": [],
      "stateMutability": "nonpayable",
      "type": "function"
    },
    {
      "inputs": [
        {
          "internalType": "address",
          "name": "newOwner",
          "type": "address"
        }
      ],
      "name": "transferOwnership",
      "outputs": [],
      "stateMutability": "nonpayable",
      "type": "function"
    }
  ],
  "bytecode": "0x60806040526040518061030001604052806102d681526020016200435c6102d69139600990805190602001906200003892919062000271565b5060405180610c400160405280610c1c815260200162003740610c1c9139600a90805190602001906200006d92919062000271565b5060405180602001604052806000815250600b90805190602001906200009592919062000271565b506101f4600c556101f4600d55348015620000af57600080fd5b506040518060400160405280601781526020017f4e696768747320616e64205765656b656e6473205330310000000000000000008152506040518060400160405280600581526020017f4e5753303100000000000000000000000000000000000000000000000000000081525081600090805190602001906200013492919062000271565b5080600190805190602001906200014d92919062000271565b50505062000170620001646200018d60201b60201c565b6200019560201b60201c565b6200018760086200025b60201b62000eb61760201c565b62000386565b600033905090565b6000600760009054906101000a900473ffffffffffffffffffffffffffffffffffffffff16905081600760006101000a81548173ffffffffffffffffffffffffffffffffffffffff021916908373ffffffffffffffffffffffffffffffffffffffff1602179055508173ffffffffffffffffffffffffffffffffffffffff168173ffffffffffffffffffffffffffffffffffffffff167f8be0079c531659141344cd1fd0a4f28419497f9722a3daafe3b4186f6b6457e060405160405180910390a35050565b6001816000016000828254019250508190555050565b8280546200027f9062000321565b90600052602060002090601f016020900481019282620002a35760008555620002ef565b82601f10620002be57805160ff1916838001178555620002ef565b82800160010185558215620002ef579182015b82811115620002ee578251825591602001919060010190620002d1565b5b509050620002fe919062000302565b5090565b5b808211156200031d57600081600090555060010162000303565b5090565b600060028204905060018216806200033a57607f821691505b6020821081141562000351576200035062000357565b5b50919050565b7f4e487b7100000000000000000000000000000000000000000000000000000000600052602260045260246000fd5b6133aa80620003966000396000f3fe608060405234801561001057600080fd5b506004361061014d5760003560e01c80636c143862116100c3578063a86a06821161007c578063a86a068214610368578063b88d4fde14610398578063c87b56dd146103b4578063dd11247e146103e4578063e985e9c514610402578063f2fde38b146104325761014d565b80636c143862146102b857806370a08231146102d6578063715018a6146103065780638da5cb5b1461031057806395d89b411461032e578063a22cb4651461034c5761014d565b806314558fab1161011557806314558fab146101f657806323b872dd146102145780633cfa7e01146102305780633d721ecd1461024e57806342842e0e1461026c5780636352211e146102885761014d565b806301ffc9a71461015257806306fdde0314610182578063081812fc146101a0578063095ea7b3146101d05780631249c58b146101ec575b600080fd5b61016c60048036038101906101679190612255565b61044e565b60405161017991906127ad565b60405180910390f35b61018a610530565b60405161019791906127c8565b60405180910390f35b6101ba60048036038101906101b591906122a7565b6105c2565b6040516101c79190612746565b60405180910390f35b6101ea60048036038101906101e59190612219565b610608565b005b6101f4610720565b005b6101fe6108f7565b60405161020b91906129ca565b60405180910390f35b61022e60048036038101906102299190612113565b610901565b005b610238610961565b60405161024591906129ca565b60405180910390f35b610256610967565b60405161026391906129ca565b60405180910390f35b61028660048036038101906102819190612113565b610971565b005b6102a2600480360381019061029d91906122a7565b610991565b6040516102af9190612746565b60405180910390f35b6102c0610a43565b6040516102cd91906129ca565b60405180910390f35b6102f060048036038101906102eb91906120ae565b610a54565b6040516102fd91906129ca565b60405180910390f35b61030e610b0c565b005b610318610b20565b6040516103259190612746565b60405180910390f35b610336610b4a565b60405161034391906127c8565b60405180910390f35b610366600480360381019061036191906121dd565b610bdc565b005b610382600480360381019061037d9190612219565b610bf2565b60405161038f91906129ca565b60405180910390f35b6103b260048036038101906103ad9190612162565b610c23565b005b6103ce60048036038101906103c991906122a7565b610c85565b6040516103db91906127c8565b60405180910390f35b6103ec610d98565b6040516103f991906129ca565b60405180910390f35b61041c600480360381019061041791906120d7565b610d9e565b60405161042991906127ad565b60405180910390f35b61044c600480360381019061044791906120ae565b610e32565b005b60007f80ac58cd000000000000000000000000000000000000000000000000000000007bffffffffffffffffffffffffffffffffffffffffffffffffffffffff1916827bffffffffffffffffffffffffffffffffffffffffffffffffffffffff1916148061051957507f5b5e139f000000000000000000000000000000000000000000000000000000007bffffffffffffffffffffffffffffffffffffffffffffffffffffffff1916827bffffffffffffffffffffffffffffffffffffffffffffffffffffffff1916145b80610529575061052882610ecc565b5b9050919050565b60606000805461053f90612c5e565b80601f016020809104026020016040519081016040528092919081815260200182805461056b90612c5e565b80156105b85780601f1061058d576101008083540402835291602001916105b8565b820191906000526020600020905b81548152906001019060200180831161059b57829003601f168201915b5050505050905090565b60006105cd82610f36565b6004600083815260200190815260200160002060009054906101000a900473ffffffffffffffffffffffffffffffffffffffff169050919050565b600061061382610991565b90508073ffffffffffffffffffffffffffffffffffffffff168373ffffffffffffffffffffffffffffffffffffffff161415610684576040517f08c379a000000000000000000000000000000000000000000000000000000000815260040161067b9061296a565b60405180910390fd5b8073ffffffffffffffffffffffffffffffffffffffff166106a3610f81565b73ffffffffffffffffffffffffffffffffffffffff1614806106d257506106d1816106cc610f81565b610d9e565b5b610711576040517f08c379a0000000000000000000000000000000000000000000000000000000008152600401610708906128ea565b60405180910390fd5b61071b8383610f89565b505050565b6000600d5411610765576040517f08c379a000000000000000000000000000000000000000000000000000000000815260040161075c9061298a565b60405180910390fd5b60006107716008611042565b9050600061077e82611050565b9050600a8210156107d6576040518060400160405280600281526020017f3030000000000000000000000000000000000000000000000000000000000000815250600b90805190602001906107d4929190611f3a565b505b6009821180156107e65750606482105b15610838576040518060400160405280600181526020017f3000000000000000000000000000000000000000000000000000000000000000815250600b9080519060200190610836929190611f3a565b505b60006009600b83600a60405160200161085494939291906126b9565b60405160208183030381529060405290506000610897610873836111fd565b60405160200161088391906126f7565b6040516020818303038152906040526111fd565b90506000816040516020016108ac9190612724565b60405160208183030381529060405290506108c733866113bb565b6108d185826113d9565b6108db6008610eb6565b6001600d546108ea9190612b74565b600d819055505050505050565b6000600c54905090565b61091261090c610f81565b8261144d565b610951576040517f08c379a0000000000000000000000000000000000000000000000000000000008152600401610948906129aa565b60405180910390fd5b61095c8383836114e2565b505050565b600d5481565b6000600d54905090565b61098c83838360405180602001604052806000815250610c23565b505050565b6000806002600084815260200190815260200160002060009054906101000a900473ffffffffffffffffffffffffffffffffffffffff169050600073ffffffffffffffffffffffffffffffffffffffff168173ffffffffffffffffffffffffffffffffffffffff161415610a3a576040517f08c379a0000000000000000000000000000000000000000000000000000000008152600401610a319061294a565b60405180910390fd5b80915050919050565b6000610a4f6008611042565b905090565b60008073ffffffffffffffffffffffffffffffffffffffff168273ffffffffffffffffffffffffffffffffffffffff161415610ac5576040517f08c379a0000000000000000000000000000000000000000000000000000000008152600401610abc906128aa565b60405180910390fd5b600360008373ffffffffffffffffffffffffffffffffffffffff1673ffffffffffffffffffffffffffffffffffffffff168152602001908152602001600020549050919050565b610b14611749565b610b1e60006117c7565b565b6000600760009054906101000a900473ffffffffffffffffffffffffffffffffffffffff16905090565b606060018054610b5990612c5e565b80601f0160208091040260200160405190810160405280929190818152602001828054610b8590612c5e565b8015610bd25780601f10610ba757610100808354040283529160200191610bd2565b820191906000526020600020905b815481529060010190602001808311610bb557829003601f168201915b5050505050905090565b610bee610be7610f81565b838361188d565b5050565b600e6020528160005260406000208181548110610c0e57600080fd5b90600052602060002001600091509150505481565b610c34610c2e610f81565b8361144d565b610c73576040517f08c379a0000000000000000000000000000000000000000000000000000000008152600401610c6a906129aa565b60405180910390fd5b610c7f848484846119fa565b50505050565b6060610c9082610f36565b6000600660008481526020019081526020016000208054610cb090612c5e565b80601f0160208091040260200160405190810160405280929190818152602001828054610cdc90612c5e565b8015610d295780601f10610cfe57610100808354040283529160200191610d29565b820191906000526020600020905b815481529060010190602001808311610d0c57829003601f168201915b505050505090506000610d3a611a56565b9050600081511415610d50578192505050610d93565b600082511115610d85578082604051602001610d6d929190612695565b60405160208183030381529060405292505050610d93565b610d8e84611a6d565b925050505b919050565b600c5481565b6000600560008473ffffffffffffffffffffffffffffffffffffffff1673ffffffffffffffffffffffffffffffffffffffff16815260200190815260200160002060008373ffffffffffffffffffffffffffffffffffffffff1673ffffffffffffffffffffffffffffffffffffffff16815260200190815260200160002060009054906101000a900460ff16905092915050565b610e3a611749565b600073ffffffffffffffffffffffffffffffffffffffff168173ffffffffffffffffffffffffffffffffffffffff161415610eaa576040517f08c379a0000000000000000000000000000000000000000000000000000000008152600401610ea19061280a565b60405180910390fd5b610eb3816117c7565b50565b6001816000016000828254019250508190555050565b60007f01ffc9a7000000000000000000000000000000000000000000000000000000007bffffffffffffffffffffffffffffffffffffffffffffffffffffffff1916827bffffffffffffffffffffffffffffffffffffffffffffffffffffffff1916149050919050565b610f3f81611ad5565b610f7e576040517f08c379a0000000000000000000000000000000000000000000000000000000008152600401610f759061294a565b60405180910390fd5b50565b600033905090565b816004600083815260200190815260200160002060006101000a81548173ffffffffffffffffffffffffffffffffffffffff021916908373ffffffffffffffffffffffffffffffffffffffff160217905550808273ffffffffffffffffffffffffffffffffffffffff16610ffc83610991565b73ffffffffffffffffffffffffffffffffffffffff167f8c5be1e5ebec7d5bd14f71427d1e84f3dd0314c0f7b2291e5b200ac8c7c3b92560405160405180910390a45050565b600081600001549050919050565b60606000821415611098576040518060400160405280600181526020017f300000000000000000000000000000000000000000000000000000000000000081525090506111f8565b600082905060005b600082146110ca5780806110b390612cc1565b915050600a826110c39190612ae9565b91506110a0565b60008167ffffffffffffffff81111561110c577f4e487b7100000000000000000000000000000000000000000000000000000000600052604160045260246000fd5b6040519080825280601f01601f19166020018201604052801561113e5781602001600182028036833780820191505090505b5090505b600085146111f1576001826111579190612b74565b9150600a856111669190612d0a565b60306111729190612a93565b60f81b8183815181106111ae577f4e487b7100000000000000000000000000000000000000000000000000000000600052603260045260246000fd5b60200101907effffffffffffffffffffffffffffffffffffffffffffffffffffffffffffff1916908160001a905350600a856111ea9190612ae9565b9450611142565b8093505050505b919050565b6060600082519050600081141561122657604051806020016040528060008152509150506113b6565b600060036002836112379190612a93565b6112419190612ae9565b600461124d9190612b1a565b9050600060208261125e9190612a93565b67ffffffffffffffff81111561129d577f4e487b7100000000000000000000000000000000000000000000000000000000600052604160045260246000fd5b6040519080825280601f01601f1916602001820160405280156112cf5781602001600182028036833780820191505090505b5090506000604051806060016040528060408152602001613335604091399050600181016020830160005b868110156113735760038101905062ffffff818a015116603f8160121c168401518060081b905060ff603f83600c1c1686015116810190508060081b905060ff603f8360061c1686015116810190508060081b905060ff603f831686015116810190508060e01b905080845260048401935050506112fa565b50600386066001811461138d576002811461139d576113a8565b613d3d60f01b60028303526113a8565b603d60f81b60018303525b508484525050819450505050505b919050565b6113d5828260405180602001604052806000815250611b41565b5050565b6113e282611ad5565b611421576040517f08c379a0000000000000000000000000000000000000000000000000000000008152600401611418906128ca565b60405180910390fd5b80600660008481526020019081526020016000209080519060200190611448929190611f3a565b505050565b60008061145983610991565b90508073ffffffffffffffffffffffffffffffffffffffff168473ffffffffffffffffffffffffffffffffffffffff16148061149b575061149a8185610d9e565b5b806114d957508373ffffffffffffffffffffffffffffffffffffffff166114c1846105c2565b73ffffffffffffffffffffffffffffffffffffffff16145b91505092915050565b8273ffffffffffffffffffffffffffffffffffffffff1661150282610991565b73ffffffffffffffffffffffffffffffffffffffff1614611558576040517f08c379a000000000000000000000000000000000000000000000000000000000815260040161154f9061282a565b60405180910390fd5b600073ffffffffffffffffffffffffffffffffffffffff168273ffffffffffffffffffffffffffffffffffffffff1614156115c8576040517f08c379a00000000000000000000000000000000000000000000000000000000081526004016115bf9061286a565b60405180910390fd5b6115d3838383611b9c565b6115de600082610f89565b6001600360008573ffffffffffffffffffffffffffffffffffffffff1673ffffffffffffffffffffffffffffffffffffffff168152602001908152602001600020600082825461162e9190612b74565b925050819055506001600360008473ffffffffffffffffffffffffffffffffffffffff1673ffffffffffffffffffffffffffffffffffffffff16815260200190815260200160002060008282546116859190612a93565b92505081905550816002600083815260200190815260200160002060006101000a81548173ffffffffffffffffffffffffffffffffffffffff021916908373ffffffffffffffffffffffffffffffffffffffff160217905550808273ffffffffffffffffffffffffffffffffffffffff168473ffffffffffffffffffffffffffffffffffffffff167fddf252ad1be2c89b69c2b068fc378daa952ba7f163c4a11628f55a4df523b3ef60405160405180910390a4611744838383611ba1565b505050565b611751610f81565b73ffffffffffffffffffffffffffffffffffffffff1661176f610b20565b73ffffffffffffffffffffffffffffffffffffffff16146117c5576040517f08c379a00000000000000000000000000000000000000000000000000000000081526004016117bc9061292a565b60405180910390fd5b565b6000600760009054906101000a900473ffffffffffffffffffffffffffffffffffffffff16905081600760006101000a81548173ffffffffffffffffffffffffffffffffffffffff021916908373ffffffffffffffffffffffffffffffffffffffff1602179055508173ffffffffffffffffffffffffffffffffffffffff168173ffffffffffffffffffffffffffffffffffffffff167f8be0079c531659141344cd1fd0a4f28419497f9722a3daafe3b4186f6b6457e060405160405180910390a35050565b8173ffffffffffffffffffffffffffffffffffffffff168373ffffffffffffffffffffffffffffffffffffffff1614156118fc576040517f08c379a00000000000000000000000000000000000000000000000000000000081526004016118f39061288a565b60405180910390fd5b80600560008573ffffffffffffffffffffffffffffffffffffffff1673ffffffffffffffffffffffffffffffffffffffff16815260200190815260200160002060008473ffffffffffffffffffffffffffffffffffffffff1673ffffffffffffffffffffffffffffffffffffffff16815260200190815260200160002060006101000a81548160ff0219169083151502179055508173ffffffffffffffffffffffffffffffffffffffff168373ffffffffffffffffffffffffffffffffffffffff167f17307eab39ab6107e8899845ad3d59bd9653f200f220920489ca2b5937696c31836040516119ed91906127ad565b60405180910390a3505050565b611a058484846114e2565b611a1184848484611ba6565b611a50576040517f08c379a0000000000000000000000000000000000000000000000000000000008152600401611a47906127ea565b60405180910390fd5b50505050565b606060405180602001604052806000815250905090565b6060611a7882610f36565b6000611a82611a56565b90506000815111611aa25760405180602001604052806000815250611acd565b80611aac84611050565b604051602001611abd929190612695565b6040516020818303038152906040525b915050919050565b60008073ffffffffffffffffffffffffffffffffffffffff166002600084815260200190815260200160002060009054906101000a900473ffffffffffffffffffffffffffffffffffffffff1673ffffffffffffffffffffffffffffffffffffffff1614159050919050565b611b4b8383611d3d565b611b586000848484611ba6565b611b97576040517f08c379a0000000000000000000000000000000000000000000000000000000008152600401611b8e906127ea565b60405180910390fd5b505050565b505050565b505050565b6000611bc78473ffffffffffffffffffffffffffffffffffffffff16611f17565b15611d30578373ffffffffffffffffffffffffffffffffffffffff1663150b7a02611bf0610f81565b8786866040518563ffffffff1660e01b8152600401611c129493929190612761565b602060405180830381600087803b158015611c2c57600080fd5b505af1925050508015611c5d57506040513d601f19601f82011682018060405250810190611c5a919061227e565b60015b611ce0573d8060008114611c8d576040519150601f19603f3d011682016040523d82523d6000602084013e611c92565b606091505b50600081511415611cd8576040517f08c379a0000000000000000000000000000000000000000000000000000000008152600401611ccf906127ea565b60405180910390fd5b805181602001fd5b63150b7a0260e01b7bffffffffffffffffffffffffffffffffffffffffffffffffffffffff1916817bffffffffffffffffffffffffffffffffffffffffffffffffffffffff191614915050611d35565b600190505b949350505050565b600073ffffffffffffffffffffffffffffffffffffffff168273ffffffffffffffffffffffffffffffffffffffff161415611dad576040517f08c379a0000000000000000000000000000000000000000000000000000000008152600401611da49061290a565b60405180910390fd5b611db681611ad5565b15611df6576040517f08c379a0000000000000000000000000000000000000000000000000000000008152600401611ded9061284a565b60405180910390fd5b611e0260008383611b9c565b6001600360008473ffffffffffffffffffffffffffffffffffffffff1673ffffffffffffffffffffffffffffffffffffffff1681526020019081526020016000206000828254611e529190612a93565b92505081905550816002600083815260200190815260200160002060006101000a81548173ffffffffffffffffffffffffffffffffffffffff021916908373ffffffffffffffffffffffffffffffffffffffff160217905550808273ffffffffffffffffffffffffffffffffffffffff16600073ffffffffffffffffffffffffffffffffffffffff167fddf252ad1be2c89b69c2b068fc378daa952ba7f163c4a11628f55a4df523b3ef60405160405180910390a4611f1360008383611ba1565b5050565b6000808273ffffffffffffffffffffffffffffffffffffffff163b119050919050565b828054611f4690612c5e565b90600052602060002090601f016020900481019282611f685760008555611faf565b82601f10611f8157805160ff1916838001178555611faf565b82800160010185558215611faf579182015b82811115611fae578251825591602001919060010190611f93565b5b509050611fbc9190611fc0565b5090565b5b80821115611fd9576000816000905550600101611fc1565b5090565b6000611ff0611feb84612a0a565b6129e5565b90508281526020810184848401111561200857600080fd5b612013848285612c1c565b509392505050565b60008135905061202a816132d8565b92915050565b60008135905061203f816132ef565b92915050565b60008135905061205481613306565b92915050565b60008151905061206981613306565b92915050565b600082601f83011261208057600080fd5b8135612090848260208601611fdd565b91505092915050565b6000813590506120a88161331d565b92915050565b6000602082840312156120c057600080fd5b60006120ce8482850161201b565b91505092915050565b600080604083850312156120ea57600080fd5b60006120f88582860161201b565b92505060206121098582860161201b565b9150509250929050565b60008060006060848603121561212857600080fd5b60006121368682870161201b565b93505060206121478682870161201b565b925050604061215886828701612099565b9150509250925092565b6000806000806080858703121561217857600080fd5b60006121868782880161201b565b94505060206121978782880161201b565b93505060406121a887828801612099565b925050606085013567ffffffffffffffff8111156121c557600080fd5b6121d18782880161206f565b91505092959194509250565b600080604083850312156121f057600080fd5b60006121fe8582860161201b565b925050602061220f85828601612030565b9150509250929050565b6000806040838503121561222c57600080fd5b600061223a8582860161201b565b925050602061224b85828601612099565b9150509250929050565b60006020828403121561226757600080fd5b600061227584828501612045565b91505092915050565b60006020828403121561229057600080fd5b600061229e8482850161205a565b91505092915050565b6000602082840312156122b957600080fd5b60006122c784828501612099565b91505092915050565b6122d981612ba8565b82525050565b6122e881612bba565b82525050565b60006122f982612a50565b6123038185612a66565b9350612313818560208601612c2b565b61231c81612df7565b840191505092915050565b600061233282612a5b565b61233c8185612a77565b935061234c818560208601612c2b565b61235581612df7565b840191505092915050565b600061236b82612a5b565b6123758185612a88565b9350612385818560208601612c2b565b80840191505092915050565b6000815461239e81612c5e565b6123a88186612a88565b945060018216600081146123c357600181146123d457612407565b60ff19831686528186019350612407565b6123dd85612a3b565b60005b838110156123ff578154818901526001820191506020810190506123e0565b838801955050505b50505092915050565b600061241d603283612a77565b915061242882612e08565b604082019050919050565b6000612440602683612a77565b915061244b82612e57565b604082019050919050565b6000612463602583612a77565b915061246e82612ea6565b604082019050919050565b6000612486601c83612a77565b915061249182612ef5565b602082019050919050565b60006124a9602483612a77565b91506124b482612f1e565b604082019050919050565b60006124cc601983612a77565b91506124d782612f6d565b602082019050919050565b60006124ef602983612a77565b91506124fa82612f96565b604082019050919050565b6000612512602e83612a77565b915061251d82612fe5565b604082019050919050565b6000612535600283612a88565b915061254082613034565b600282019050919050565b6000612558608e83612a88565b91506125638261305d565b608e82019050919050565b600061257b603e83612a77565b91506125868261311e565b604082019050919050565b600061259e602083612a77565b91506125a98261316d565b602082019050919050565b60006125c1602083612a77565b91506125cc82613196565b602082019050919050565b60006125e4601883612a77565b91506125ef826131bf565b602082019050919050565b6000612607602183612a77565b9150612612826131e8565b604082019050919050565b600061262a601d83612a88565b915061263582613237565b601d82019050919050565b600061264d600883612a77565b915061265882613260565b602082019050919050565b6000612670602e83612a77565b915061267b82613289565b604082019050919050565b61268f81612c12565b82525050565b60006126a18285612360565b91506126ad8284612360565b91508190509392505050565b60006126c58287612391565b91506126d18286612391565b91506126dd8285612360565b91506126e98284612391565b915081905095945050505050565b60006127028261254b565b915061270e8284612360565b915061271982612528565b915081905092915050565b600061272f8261261d565b915061273b8284612360565b915081905092915050565b600060208201905061275b60008301846122d0565b92915050565b600060808201905061277660008301876122d0565b61278360208301866122d0565b6127906040830185612686565b81810360608301526127a281846122ee565b905095945050505050565b60006020820190506127c260008301846122df565b92915050565b600060208201905081810360008301526127e28184612327565b905092915050565b6000602082019050818103600083015261280381612410565b9050919050565b6000602082019050818103600083015261282381612433565b9050919050565b6000602082019050818103600083015261284381612456565b9050919050565b6000602082019050818103600083015261286381612479565b9050919050565b600060208201905081810360008301526128838161249c565b9050919050565b600060208201905081810360008301526128a3816124bf565b9050919050565b600060208201905081810360008301526128c3816124e2565b9050919050565b600060208201905081810360008301526128e381612505565b9050919050565b600060208201905081810360008301526129038161256e565b9050919050565b6000602082019050818103600083015261292381612591565b9050919050565b60006020820190508181036000830152612943816125b4565b9050919050565b60006020820190508181036000830152612963816125d7565b9050919050565b60006020820190508181036000830152612983816125fa565b9050919050565b600060208201905081810360008301526129a381612640565b9050919050565b600060208201905081810360008301526129c381612663565b9050919050565b60006020820190506129df6000830184612686565b92915050565b60006129ef612a00565b90506129fb8282612c90565b919050565b6000604051905090565b600067ffffffffffffffff821115612a2557612a24612dc8565b5b612a2e82612df7565b9050602081019050919050565b60008190508160005260206000209050919050565b600081519050919050565b600081519050919050565b600082825260208201905092915050565b600082825260208201905092915050565b600081905092915050565b6000612a9e82612c12565b9150612aa983612c12565b9250827fffffffffffffffffffffffffffffffffffffffffffffffffffffffffffffffff03821115612ade57612add612d3b565b5b828201905092915050565b6000612af482612c12565b9150612aff83612c12565b925082612b0f57612b0e612d6a565b5b828204905092915050565b6000612b2582612c12565b9150612b3083612c12565b9250817fffffffffffffffffffffffffffffffffffffffffffffffffffffffffffffffff0483118215151615612b6957612b68612d3b565b5b828202905092915050565b6000612b7f82612c12565b9150612b8a83612c12565b925082821015612b9d57612b9c612d3b565b5b828203905092915050565b6000612bb382612bf2565b9050919050565b60008115159050919050565b60007fffffffff0000000000000000000000000000000000000000000000000000000082169050919050565b600073ffffffffffffffffffffffffffffffffffffffff82169050919050565b6000819050919050565b82818337600083830152505050565b60005b83811015612c49578082015181840152602081019050612c2e565b83811115612c58576000848401525b50505050565b60006002820490506001821680612c7657607f821691505b60208210811415612c8a57612c89612d99565b5b50919050565b612c9982612df7565b810181811067ffffffffffffffff82111715612cb857612cb7612dc8565b5b80604052505050565b6000612ccc82612c12565b91507fffffffffffffffffffffffffffffffffffffffffffffffffffffffffffffffff821415612cff57612cfe612d3b565b5b600182019050919050565b6000612d1582612c12565b9150612d2083612c12565b925082612d3057612d2f612d6a565b5b828206905092915050565b7f4e487b7100000000000000000000000000000000000000000000000000000000600052601160045260246000fd5b7f4e487b7100000000000000000000000000000000000000000000000000000000600052601260045260246000fd5b7f4e487b7100000000000000000000000000000000000000000000000000000000600052602260045260246000fd5b7f4e487b7100000000000000000000000000000000000000000000000000000000600052604160045260246000fd5b6000601f19601f8301169050919050565b7f4552433732313a207472616e7366657220746f206e6f6e20455243373231526560008201527f63656976657220696d706c656d656e7465720000000000000000000000000000602082015250565b7f4f776e61626c653a206e6577206f776e657220697320746865207a65726f206160008201527f6464726573730000000000000000000000000000000000000000000000000000602082015250565b7f4552433732313a207472616e736665722066726f6d20696e636f72726563742060008201527f6f776e6572000000000000000000000000000000000000000000000000000000602082015250565b7f4552433732313a20746f6b656e20616c7265616479206d696e74656400000000600082015250565b7f4552433732313a207472616e7366657220746f20746865207a65726f2061646460008201527f7265737300000000000000000000000000000000000000000000000000000000602082015250565b7f4552433732313a20617070726f766520746f2063616c6c657200000000000000600082015250565b7f4552433732313a2061646472657373207a65726f206973206e6f74206120766160008201527f6c6964206f776e65720000000000000000000000000000000000000000000000602082015250565b7f45524337323155524953746f726167653a2055524920736574206f66206e6f6e60008201527f6578697374656e7420746f6b656e000000000000000000000000000000000000602082015250565b7f227d000000000000000000000000000000000000000000000000000000000000600082015250565b7f7b226e616d65223a20224e69676874732026205765656b656e6473205365617360008201527f6f6e2031222c20226465736372697074696f6e223a2022353030206275696c6460208201527f657273207368697070696e6720666f722036207765656b732e204754464f4c2060408201527f6f72204754464f222c2022696d616765223a2022646174613a696d6167652f7360608201527f76672b786d6c3b6261736536342c000000000000000000000000000000000000608082015250565b7f4552433732313a20617070726f76652063616c6c6572206973206e6f7420746f60008201527f6b656e206f776e6572206e6f7220617070726f76656420666f7220616c6c0000602082015250565b7f4552433732313a206d696e7420746f20746865207a65726f2061646472657373600082015250565b7f4f776e61626c653a2063616c6c6572206973206e6f7420746865206f776e6572600082015250565b7f4552433732313a20696e76616c696420746f6b656e2049440000000000000000600082015250565b7f4552433732313a20617070726f76616c20746f2063757272656e74206f776e6560008201527f7200000000000000000000000000000000000000000000000000000000000000602082015250565b7f646174613a6170706c69636174696f6e2f6a736f6e3b6261736536342c000000600082015250565b7f536f6c64206f7574000000000000000000000000000000000000000000000000600082015250565b7f4552433732313a2063616c6c6572206973206e6f7420746f6b656e206f776e6560008201527f72206e6f7220617070726f766564000000000000000000000000000000000000602082015250565b6132e181612ba8565b81146132ec57600080fd5b50565b6132f881612bba565b811461330357600080fd5b50565b61330f81612bc6565b811461331a57600080fd5b50565b61332681612c12565b811461333157600080fd5b5056fe4142434445464748494a4b4c4d4e4f505152535455565758595a6162636465666768696a6b6c6d6e6f707172737475767778797a303132333435363738392b2fa26469706673582212207de6153b9e96e7d7bcb17612714d9d4c437a93798a73cecdd40282d1fba6c00664736f6c634300080100333c2f746578743e3c73766720783d273238302720793d273439302720786d6c6e733d27687474703a2f2f7777772e77332e6f72672f323030302f73766727206865696768743d27313030272077696474683d27313030272076696577426f783d2730203020323920323927207265646e657241733d27737667273e3c706174682066696c6c3d27233036304131462720643d274d302c302068323976323948307a272073686170652d72656e646572696e673d2763726973704564676573273e3c2f706174683e3c706174682066696c6c3d2777686974652720643d274d3020306837763148307a4d3820306835763148387a4d31342030683176314831347a4d31362030683576314831367a4d32322c3020683776314832327a4d3020316831763148307a4d3620316831763148367a4d3820316831763148387a4d31312031683476314831317a4d31382031683176314831387a4d32322031683176314832327a4d32382c3120683176314832387a4d3020326831763148307a4d3220326833763148327a4d3620326831763148367a4d3920326836763148397a4d32302032683176314832307a4d32322032683176314832327a4d32342032683376314832347a4d32382c3220683176314832387a4d3020336831763148307a4d3220336833763148327a4d3620336831763148367a4d3820336831763148387a4d31352033683176314831357a4d31372033683176314831377a4d31392033683176314831397a4d32322033683176314832327a4d32342033683376314832347a4d32382c3320683176314832387a4d3020346831763148307a4d3220346833763148327a4d3620346831763148367a4d3920346832763148397a4d31332034683476314831337a4d31392034683276314831397a4d32322034683176314832327a4d32342034683376314832347a4d32382c3420683176314832387a4d3020356831763148307a4d3620356831763148367a4d3920356831763148397a4d31322035683176314831327a4d31342035683176314831347a4d31362035683176314831367a4d31392035683276314831397a4d32322035683176314832327a4d32382c3520683176314832387a4d3020366837763148307a4d3820366831763148387a4d31302036683176314831307a4d31322036683176314831327a4d31342036683176314831347a4d31362036683176314831367a4d31382036683176314831387a4d32302036683176314832307a4d32322c3620683776314832327a4d3820376831763148387a4d3130203768313076314831307a4d3020386831763148307a4d3220386832763148327a4d3520386833763148357a4d3920386831763148397a4d31332038683676314831337a4d32322038683176314832327a4d32352038683176314832357a4d32372c3820683276314832377a4d3020396833763148307a4d3420396831763148347a4d3820396831763148387a4d31362039683176314831367a4d31382039683776314831387a4d32382c3920683176314832387a4d302031306832763148307a4d342031306831763148347a4d362031306834763148367a4d3131203130683176314831317a4d3134203130683176314831347a4d3136203130683176314831367a4d3138203130683176314831387a4d3231203130683176314832317a4d3233203130683176314832337a4d3236203130683276314832367a4d302031316831763148307a4d332031316833763148337a4d382031316831763148387a4d3133203131683276314831337a4d3138203131683176314831387a4d3232203131683376314832327a4d32382c313120683176314832387a4d342031326831763148347a4d362031326831763148367a4d382031326831763148387a4d3130203132683176314831307a4d3132203132683176314831327a4d3135203132683176314831357a4d3137203132683176314831377a4d3230203132683176314832307a4d3235203132683276314832357a4d302031336831763148307a4d322031336834763148327a4d372031336831763148377a4d392031336835763148397a4d3135203133683276314831357a4d3139203133683176314831397a4d3231203133683276314832317a4d32362c313320683376314832367a4d302031346832763148307a4d352031346833763148357a4d392031346832763148397a4d3134203134683176314831347a4d3139203134683176314831397a4d3232203134683276314832327a4d32362c313420683376314832367a4d302031356831763148307a4d322031356833763148327a4d3130203135683276314831307a4d3133203135683176314831337a4d3138203135683376314831387a4d3232203135683176314832327a4d3237203135683176314832377a4d302031366831763148307a4d332031366831763148337a4d362031366831763148367a4d382031366831763148387a4d3130203136683376314831307a4d3135203136683176314831357a4d3138203136683476314831387a4d3233203136683376314832337a4d3237203136683176314832377a4d352031376831763148357a4d382031376831763148387a4d3131203137683376314831317a4d3135203137683176314831357a4d3138203137683176314831387a4d3231203137683176314832317a4d3233203137683176314832337a4d3235203137683376314832357a4d302031386831763148307a4d332031386834763148337a4d392031386831763148397a4d3131203138683276314831317a4d3135203138683276314831357a4d3230203138683276314832307a4d3233203138683276314832337a4d3236203138683176314832367a4d322031396832763148327a4d392031396831763148397a4d3131203139683176314831317a4d3136203139683276314831367a4d3236203139683176314832367a4d312032306832763148317a4d362032306832763148367a4d392032306835763148397a4d313620323068313176314831367a4d382032316831763148387a4d3132203231683376314831327a4d3136203231683176314831367a4d3230203231683176314832307a4d32342c323120683576314832347a4d302032326837763148307a4d382032326832763148387a4d3132203232683276314831327a4d3136203232683176314831367a4d3139203232683276314831397a4d3232203232683176314832327a4d3234203232683276314832347a4d3237203232683176314832377a4d302032336831763148307a4d362032336831763148367a4d382032336834763148387a4d3138203233683176314831387a4d3230203233683176314832307a4d3234203233683276314832347a4d32372c323320683276314832377a4d302032346831763148307a4d322032346833763148327a4d362032346831763148367a4d392032346833763148397a4d3134203234683276314831347a4d3137203234683276314831377a4d3230203234683576314832307a4d3236203234683176314832367a4d302032356831763148307a4d322032356833763148327a4d362032356831763148367a4d382032356831763148387a4d3131203235683276314831317a4d3134203235683376314831347a4d3139203235683176314831397a4d3231203235683176314832317a4d3234203235683276314832347a4d32382c323520683176314832387a4d302032366831763148307a4d322032366833763148327a4d362032366831763148367a4d382032366831763148387a4d3131203236683276314831317a4d3134203236683176314831347a4d3138203236683276314831387a4d3233203236683176314832337a4d3236203236683176314832367a4d32382c323620683176314832387a4d302032376831763148307a4d362032376831763148367a4d3130203237683176314831307a4d3132203237683276314831327a4d3136203237683176314831367a4d3230203237683276314832307a4d3235203237683176314832357a4d3237203237683176314832377a4d302032386837763148307a4d382032386831763148387a4d3130203238683376314831307a4d3136203238683176314831367a4d3138203238683476314831387a4d3233203238683176314832337a4d3237203238683176314832377a272073686170652d72656e646572696e673d2763726973704564676573273e3c2f706174683e3c2f7376673e3c2f7376673e3c73766720786d6c6e733d27687474703a2f2f7777772e77332e6f72672f323030302f737667272077696474683d2734303027206865696768743d27363030273e3c726563742077696474683d2734303027206865696768743d2736303027207374796c653d2766696c6c3a72676228362c2031302c203331293b7374726f6b652d77696474683a3327202f3e3c7465787420783d2732352720793d2737352720666f6e742d66616d696c793d2756657264616e612720666f6e742d73697a653d273630273ef09f8c993c2f746578743e3c7465787420783d2739302720793d273136352720666f6e742d66616d696c793d2756657264616e612720666f6e742d73697a653d273435272066696c6c3d27726762283235302c203230342c20323129273e4e49474854532026616d703b3c2f746578743e3c7465787420783d2738302720793d273230302720666f6e742d66616d696c793d2756657264616e612720666f6e742d73697a653d273435272066696c6c3d27726762283235302c203230342c20323129273e5745454b454e44533c2f746578743e3c7465787420783d273132302720793d273339302720666f6e742d66616d696c793d2756657264616e612720666f6e742d73697a653d27313430273ef09fa6843c2f746578743e3c7465787420783d273132302720793d273435352720666f6e742d66616d696c793d2756657264616e612720666f6e742d73697a653d273330272066696c6c3d27726762283235302c203230342c20323129273e534541534f4e2030313c2f746578743e3c7265637420783d27302720793d27343735272077696474683d2734303027206865696768743d27323030272066696c6c3d277267622839312c2035312c20393229273e3c2f726563743e3c7465787420783d2738302720793d273535302720666f6e742d66616d696c793d2756657264616e612720666f6e742d73697a653d273530272066696c6c3d277768697465273e",
  "linkReferences": {},
  "deployedLinkReferences": {}
}